{
  "contractName": "SimpleStorage",
  "abi": [
    {
      "inputs": [],
      "name": "text",
      "outputs": [
        {
          "internalType": "string",
          "name": "",
          "type": "string"
        }
      ],
      "stateMutability": "view",
      "type": "function"
    },
    {
      "inputs": [
        {
          "internalType": "string",
          "name": "_text",
          "type": "string"
        }
      ],
      "name": "set",
      "outputs": [],
      "stateMutability": "nonpayable",
      "type": "function"
    },
    {
      "inputs": [],
      "name": "get",
      "outputs": [
        {
          "internalType": "string",
          "name": "",
          "type": "string"
        }
      ],
      "stateMutability": "view",
      "type": "function"
    }
  ],
  "bytecode": "0x608060405234801561001057600080fd5b506106a1806100206000396000f3fe608060405234801561001057600080fd5b50600436106100415760003560e01c80631f1bd692146100465780634ed3885e146100645780636d4ce63c14610080575b600080fd5b61004e61009e565b60405161005b919061026d565b60405180910390f35b61007e600480360381019061007991906102fe565b61012c565b005b610088610142565b604051610095919061026d565b60405180910390f35b600080546100ab9061037a565b80601f01602080910402602001604051908101604052809291908181526020018280546100d79061037a565b80156101245780601f106100f957610100808354040283529160200191610124565b820191906000526020600020905b81548152906001019060200180831161010757829003601f168201915b505050505081565b81816000918261013d92919061059b565b505050565b6060600080546101519061037a565b80601f016020809104026020016040519081016040528092919081815260200182805461017d9061037a565b80156101ca5780601f1061019f576101008083540402835291602001916101ca565b820191906000526020600020905b8154815290600101906020018083116101ad57829003601f168201915b5050505050905090565b600081519050919050565b600082825260208201905092915050565b60005b8381101561020e5780820151818401526020810190506101f3565b8381111561021d576000848401525b50505050565b6000601f19601f8301169050919050565b600061023f826101d4565b61024981856101df565b93506102598185602086016101f0565b61026281610223565b840191505092915050565b600060208201905081810360008301526102878184610234565b905092915050565b600080fd5b600080fd5b600080fd5b600080fd5b600080fd5b60008083601f8401126102be576102bd610299565b5b8235905067ffffffffffffffff8111156102db576102da61029e565b5b6020830191508360018202830111156102f7576102f66102a3565b5b9250929050565b600080602083850312156103155761031461028f565b5b600083013567ffffffffffffffff81111561033357610332610294565b5b61033f858286016102a8565b92509250509250929050565b7f4e487b7100000000000000000000000000000000000000000000000000000000600052602260045260246000fd5b6000600282049050600182168061039257607f821691505b6020821081036103a5576103a461034b565b5b50919050565b600082905092915050565b7f4e487b7100000000000000000000000000000000000000000000000000000000600052604160045260246000fd5b60008190508160005260206000209050919050565b60006020601f8301049050919050565b600082821b905092915050565b6000600883026104477fffffffffffffffffffffffffffffffffffffffffffffffffffffffffffffffff8261040a565b610451868361040a565b95508019841693508086168417925050509392505050565b6000819050919050565b6000819050919050565b600061049861049361048e84610469565b610473565b610469565b9050919050565b6000819050919050565b6104b28361047d565b6104c66104be8261049f565b848454610417565b825550505050565b600090565b6104db6104ce565b6104e68184846104a9565b505050565b5b8181101561050a576104ff6000826104d3565b6001810190506104ec565b5050565b601f82111561054f57610520816103e5565b610529846103fa565b81016020851015610538578190505b61054c610544856103fa565b8301826104eb565b50505b505050565b600082821c905092915050565b600061057260001984600802610554565b1980831691505092915050565b600061058b8383610561565b9150826002028217905092915050565b6105a583836103ab565b67ffffffffffffffff8111156105be576105bd6103b6565b5b6105c8825461037a565b6105d382828561050e565b6000601f83116001811461060257600084156105f0578287013590505b6105fa858261057f565b865550610662565b601f198416610610866103e5565b60005b8281101561063857848901358255600182019150602085019450602081019050610613565b868310156106555784890135610651601f891682610561565b8355505b6001600288020188555050505b5050505050505056fea2646970667358221220c535fbae98c84211790a5b9f266be2818c12965e51a247a97c720f0ce4baa5d664736f6c634300080f0033",
  "immutableReferences": {},
  "source": "// SPDX-License-Identifier: MIT\r\n\r\npragma solidity ^0.8.0;\r\n\r\ncontract SimpleStorage {\r\n    string public text;\r\n    function set (string calldata _text) external{\r\n        text = _text;\r\n    }\r\n\r\n    function get () external view returns (string memory){\r\n       return text;\r\n    }\r\n}",
  "sourcePath": "D:\\portfolio projects\\simple_storage\\contracts\\simpleStorage.sol",
  "compiler": {
    "name": "solc",
    "version": "0.8.15+commit.e14f2714.Emscripten.clang"
  },
  "schemaVersion": "3.4.8",
  "updatedAt": "2022-07-18T12:25:33.341Z",
  "devdoc": {
    "kind": "dev",
    "methods": {},
    "version": 1
  },
  "userdoc": {
    "kind": "user",
    "methods": {},
    "version": 1
  }
}